:020000040800F2
:10000000000400200103000803030008411C00084D
:1000100003030008030300080303000803030008A8
:10002000030300080303000803030008511C000831
:100030000303000803030008030300080303000888
:100040000303000803030008030300080303000878
:100050000303000803030008030300080303000868
:1000600003030008030300080303000841230008FA
:1000700011230008E1220008B122000881220008B3
:10008000512200082122000803030008030300088E
:100090000303000803030008030300080303000828
:1000A0000303000803030008030300080303000818
:1000B000B11F00080303000803030008030300083E
:1000C00003030008030300080303000803030008F8
:1000D00003030008911F0008711F000803030008B4
:1000E00003030008030300080303000803030008D8
:1000F000030300080303000803030008F1210008BC
:1001000003030008030300080303000803030008B7
:1001100003030008030300080303000803030008A7
:10012000C121000891210008612100083121000847
:10013000012100080303000803030008030300086B
:100140000303000803030008030300080303000877
:10015000D1200008A1200008712000080303000836
:100160000303000803030008030300080303000857
:100170000303000803030008030300080303000847
:100180000303000803030008030300080303000837
:100190000303000803030008030300080303000827
:1001A0000303000803030008030300080303000817
:1001B0000303000803030008030300080303000807
:1001C00003030008030300080303000803030008F7
:1001D00003030008030300080303000803030008E7
:1001E00072B6394880F30888384880F3098838485F
:1001F0004EF60851CEF20001086040F20000CCF249
:1002000000004EF63471CEF200010860BFF34F8F4C
:10021000BFF36F8F40F20000C0F2F0004EF688513D
:10022000CEF200010860BFF34F8FBFF36F8F4FF026
:100230000000E1EE100A4EF63C71CEF200010860BB
:10024000062080F31488BFF36F8F02F0D9F801F015
:1002500057FD4FF055301F491B4A91423CBF41F8B2
:10026000040BFAE71C49194A91423CBF41F8040BC0
:10027000FAE71A491A4A1B4B9A423EBF51F8040B3F
:1002800042F8040BF8E700201749184A91423CBF96
:1002900041F8040BFAE702F06BF802F0A9F8144CED
:1002A000144DAC4203DA54F8041B8847F9E701F017
:1002B000C7F9114C114DAC4203DA54F8041B8847BE
:1002C000F9E702F08DB800000004002000080020CB
:1002D000000000080000002000040020682600083C
:1002E00000080020000C0020000C0020C0C90120E4
:1002F000E0010008E0010008E0010008E00100085A
:100300006EE700F000F8FEE72DE9F04F2DED108AC2
:10031000C1F80CD0C3689D46BDEC108ABDE8F08FD3
:10032000002383F311882846A047002001F0A0FC99
:10033000FEE701F0C5FC00DFFEE70000844641EA6D
:10034000000313F003036DD1403A41D351F8043B4D
:1003500040F8043B51F8043B40F8043B51F8043B9F
:1003600040F8043B51F8043B40F8043B51F8043B8F
:1003700040F8043B51F8043B40F8043B51F8043B7F
:1003800040F8043B51F8043B40F8043B51F8043B6F
:1003900040F8043B51F8043B40F8043B51F8043B5F
:1003A00040F8043B51F8043B40F8043B51F8043B4F
:1003B00040F8043B51F8043B40F8043B51F8043B3F
:1003C00040F8043B51F8043B40F8043B403ABDD2AE
:1003D000303211D351F8043B40F8043B51F8043B50
:1003E00040F8043B51F8043B40F8043B51F8043B0F
:1003F00040F8043B103AEDD20C3205D351F8043BDF
:1004000040F8043B043AF9D2043208D0D2071CBFAA
:1004100011F8013B00F8013B01D30B8803806046D3
:10042000704700BF082A13D38B078DD010F0030349
:100430008AD0C3F10403D21ADB071CBF11F8013BB9
:1004400000F8013B80D331F8023B20F8023B7BE708
:10045000043AD9D3013A11F8013B00F8013BF9D233
:100460000B7803704B7843708B78837060467047CD
:10047000F0B40346124A43F8042B0122002510274A
:1004800000F1740600F10C044360C16400F16403E0
:10049000027200F1300100F154024561C0E90344E9
:1004A000856287630664C0E90822F0BCC0E91133A5
:1004B000C0E90C11C06200658261C361C36370470B
:1004C00040260008000000000000000000000000BE
:1004D000164B5868028A02F0060270B4846802B1B2
:1004E00064001A69996862B112689E69456816606D
:1004F00001F10C069660D5605460156845F0010561
:1005000015605A6962B11268DD690368156001F10E
:100510000C009060D3605460136843F001031360D3
:10052000CB6943F4806370BCCB617047000C002042
:100530002DE9F04F0325AB46002202264FF0050AB5
:100540004FF00F0910E0046A24EA030343EA0C03A6
:10055000036203680EEA030E4EEA060303604908CD
:100560002CD0AD00B6000132012302FA03F403FAE5
:1005700002F702F007039B000BFA04F411F0010FDD
:100580000AFA03FC6FEA040E09FA03F3E7D0D0F885
:10059000048028EA07074760876827EA04072F4393
:1005A0008760C768072A27EA0404C460CBD9446A75
:1005B00024EA030343EA0C034362CAE7BDE8F08F71
:1005C00030B4202383F311880B4CD4E90035494221
:1005D000281A0840821A9A4207D3954205D36260CE
:1005E000002383F3118830BC70470020002383F37D
:1005F000118830BC704700BF380F00200000000099
:10060000024AD36843F0C003D36070470010014032
:10061000024AD36843F0C003D360704700440040EF
:10062000202383F31188104B5B6813F4006302D11D
:1006300083F311887047F1EE103AEFF30983683BBA
:100640004FF08071094AD961D2681A6683F309882C
:10065000074A116892698968926891428CBF054A7D
:10066000054A9A61704700BF00ED00E030EF00E0FE
:10067000180D0020330300083603000800000000B6
:10068000094A10B4D2E900344942201A084098427D
:1006900005D3844203D35DF8044B506070470020BB
:1006A0005DF8044B704700BF380F002000000000C9
:1006B0000E4A0F4B52685B6F816830B4D31AD0E991
:1006C0000445C2685B1A01324168C260E4180268DE
:1006D000836045F100058B4288BF43609342C0E9C7
:1006E000044538BF036030BC704700BF001000E015
:1006F000180D0020000000000000000000000000B5
:10070000014B5B6883607047001000E00000000050
:10071000202383F3118890F82030072B0DD8DFE8D1
:1007200003F0280C0C2408040C08426A9368013377
:100730009360D0E9003213605A6010B400224FF089
:10074000FF3481680D4B446280F820201B689A6852
:100750008A42FBD25A680021C0E90032106058601A
:1007600081F311885DF8044B7047436A00221A60D8
:10077000E3E7002383F31188704700BF180D0020C2
:1007800000228168064B80F820201B689A688A4204
:10079000FBD25A68C0E9003210605860704700BF51
:1007A000180D002000000000000000000000000004
:1007B00010B51048FFF7A4FF202383F311880E4CD7
:1007C0000E48A36801600133002B4260A36007DD7F
:1007D000002383F311880748BDE81040FFF768BF86
:1007E00020680368236000225C604262FFF7C8FF54
:1007F000EEE700BF80230020883500207C340020F5
:10080000F8B50468A04221D007460D46002604E052
:100810000B2A1CD02468A74218D0E3682B43E3605E
:1008200015B123691D42F5D0D4E90103416B90F85D
:1008300020200B430A2A4363EAD1426A1342E9D0DB
:100840004662FFF79DFF2468A742E6D1F8BD426AE1
:1008500032EA0303DED1F3E70000000000000000ED
:10086000FEE700BF000000000000000000000000E4
:100870002DE9F84F466FD6F80C903368DA05044638
:100880009DB200F18180202383F3118815F02F0F92
:1008900050D0271D04F10C084FF0000A08E0A8060C
:1008A000D6F804B01ED4336813F02F0F9DB241D098
:1008B0002B07F4D015F0080F0CBF00218021E807AA
:1008C00048BF41F02001AA0748BF41F040016B0733
:1008D00048BF41F480713846FFF792FFA806D6F86A
:1008E00004B0E0D5636994F87850002B3BD0D4E98C
:1008F000083293423FD06269591C013205EA0B0B62
:100900006261216283F800B0D4E907329A4201D3D0
:10091000A3692362E0688045C5D00368E360C3F83B
:100920000480C0F824A0FFF72BFF336813F02F0FCB
:100930009DB2BDD1002383F3118819F0800F01D03F
:100940002A0630D419F0400F0BD06B0609D52023AE
:1009500083F31188D4E911239A4249D0002383F309
:100960001188BDE8F88F04213846FFF749FFD4E924
:1009700008329342BFD16269002ABCD04FF4806133
:100980003846FFF73DFF8EE7202383F311884FF4AD
:1009900000710430FFF734FF6FF48073336000237D
:1009A00083F311886FE7202383F31188D4E911239F
:1009B0009A4204F1300728D0A26B216C581C0132F6
:1009C000A263A064884293F8008001D3E36BA36420
:1009D000206B874206D00368236300225F60426277
:1009E000FFF7CEFEC6F80480002383F31188A9E741
:1009F000A36B002BB2D0201D1021FFF701FF4FF693
:100A0000BF7309EA0303F360A8E7A26B002AD3D0FF
:100A10000821201DFFF7F4FE4FF67F7309EA030358
:100A2000F360E1E7000000000000000000000000AB
:100A300011F00C0F16D18A0610B5044609D543688B
:100A4000DB682BB10422027098472378042B0ED068
:100A500010BDCB06FCD54368DB68002BF8D0BDE8A1
:100A60001040184772B6034B034ADA62FEE70323CD
:100A7000237010BD180D0020A42400080000000001
:100A8000002070470000000000000000000000008F
:100A9000144B996930B48D6884680022AC4242627C
:100AA0000CD880F820201B689A689442FBD95A68B9
:100AB00030BCC0E9003210605860704781F82020D7
:100AC0001A4612689468A542FBD354684C6001250D
:100AD0000A602160516080F8205030BC9861FFF7B7
:100AE00013BC00BF180D0020000000000000000033
:100AF000F8B5202383F3118848394418154B236136
:100B00005969E06144F8242CA4F16406124DE660B2
:100B10000220012244F8045C208484F8222000256D
:100B200004F12C0280200D4FA06004F128066161C1
:100B300044F8205CE063C4E90D55A76120460C61D0
:100B4000C4E90A6222635C61FFF7A2FF85F31188A2
:100B50002046F8BD180D002021030008B02400082D
:100B6000084B99691A6810B481F820001068186061
:100B70000124436082F820405DF8044B9A611046DE
:100B8000FFF7C2BB180D00200000000000000000AD
:100B9000F0B54B1C87B049D03F4C404FA36905933B
:100BA0002646022956F81C3F05464FF0804038BFC4
:100BB0000221B342426A04975BD0A76AD21B89180C
:100BC0002ED398681B689A68091A914204D91B6849
:100BD000891A9A688A42FAD35A68029201AF01933D
:100BE00017605F6003919A68511A4FF0FF32996065
:100BF00062622846FFF7B4FF049B6BB1E369BB4216
:100C00001BD0DDE901321360019BB3425A6003D06F
:100C10009A6803990A449A60A369586A07B0F0BDBC
:100C20009A689142D1D20F444763CEE71A4CFFF73E
:100C300097FFA369586A07B0F0BD019BE3610022EA
:100C4000B3425E60049222D09A680398A16A02447B
:100C50004FF080409A60436A581A8242DCD9CB1A1E
:100C60001344012B98BF821C4FF080430A445A63FF
:100C7000D2E78B1801AFA262CDE90166C4E907771C
:100C800003910022436302230261C360B1E74FF086
:100C90008043DA60C0E700BF180D0020110700088C
:100CA00069B1084A10B4926944680346C2E9003445
:100CB000042022605DF8044B5A60FFF769BF4FF0D3
:100CC000FF307047180D00200000000000000000F9
:100CD000F8B504460F461646202383F3118803E037
:100CE000FFF7DEFF002818DBA56831462046002DFF
:100CF000F6D06269A368511C013B6161A360177063
:100D0000D4E904329A4224BFE3686361E36903B122
:100D10009847002080F31188F8BD85F31188F8BD4D
:100D20003030FFF7D5BF00BF00000000000000001A
:100D300030304FF0FF32FFF7CBBF00BF00000000A4
:100D400070B5202305460E4683F3118803E0FFF7B4
:100D5000A7FF00281ADBAC6831462846002CF6D0E5
:100D6000A969AB6828694A1C013B8242AB60AA6151
:100D700028BFEB680C7828BFAB61EB690BB1284644
:100D80009847002383F31188204670BD84F31188AF
:100D900070BD00BF00000000000000000000000067
:100DA0000C30FFF7CDBF00BF0000000000000000C6
:100DB0000C304FF0FF31FFF7C3BF00BF0000000051
:100DC00008B50146202383F311880820FFF7E0FED1
:100DD000002383F3118808BD00000000000000001C
:100DE00008B5094B094A9B69094C9A614FF40055B3
:100DF0002E46268341F28830FFF7E2FF658341F2F9
:100E00008830FFF7DDFFF4E7180D0020B824000854
:100E1000000C024000000000000000000000000084
:100E20002DE9F04FCE4BCF4A9B692DED0A8B9FEDFC
:100E3000CE8ADFEDCE8A9A6199B0202383F31188A0
:100E4000CB4A9368013B002B9360C0F222820023BF
:100E500083F31188C24B9B6993F8212012F004029E
:100E600040F0CB82C348DFF82883FFF749FCC24833
:100E7000FFF746FCD8F80000C04B04301A60144657
:100E800000EB141114F00F0F08BF38F811200134D3
:100E900017044CBFC3ED008A83ED008A5200B4F5FD
:100EA000806F92B203F10403EAD1B348DFF8CCB209
:100EB000FFF7FEFBB248FFF723FCB24BB2495D8857
:100EC0000A689E68129505F18045013D18785F68B3
:100ED000B4FBF0F301EB821C9C0806EB8502139235
:100EE0001594621C03F003030CF104041194149391
:100EF00000EB4001130189001693119B129D05918F
:100F000003EB0213059A1097A9081037079302EB19
:100F1000011302970B93C70002F1100304970A0113
:100F2000109C01910E930B4602990892049ADDF8E9
:100F30004CA017904FEA800901EB031704EB031153
:100F4000039109EB031102EB03130A9309F1100358
:100F50000F9609910C9302F110030D9305F0030312
:100F60000CF1140C4FEA001E069351464B465A46AC
:100F700052F8040B41F8040B013BF9D1049BDFED5F
:100F8000837A9919059BF018019BF344F24406EB10
:100F90000902B0EE677AF0EE676AB0EE676A002B7E
:100FA00000F071810C9A029B90190D9A91190E9A7A
:100FB00006F11004324413ED044A54ED04CA10ED56
:100FC00004CA51ED04BA12ED04BA53ED034A54EDCC
:100FD00003AA10ED03AA51ED039A12ED039A13ED43
:100FE000025A14ED020A50ED020A11ED021A52EDF6
:100FF000021A53ED015A14ED012A50ED012A11EDA8
:10100000013A52ED013AA4EE2C6A1033BB42E4EEF1
:101010000C6A04F1100400F11000A4EE2B7A01F127
:10102000100102F11002E4EE0B7AA4EEAA6AE4EEDB
:101030008A6AA4EEA97AE4EE897AA5EE006AE5EE62
:10104000206AA5EE017AE5EE217AA5EE826AE5EE48
:10105000A26AA5EE837AE5EEA37AACD1089B039C45
:10106000F518099BF2180A9BF1180B9BF018069BC8
:101070009BB1F4EC015AF5EC013AB2EC014AF1EC07
:10108000014AB0EC015A013BA5EEA36AE5EE846A81
:10109000A5EEA47AE5EE857AEBD1079B0CED046A08
:1010A0004CED036A0CED027A4CED017A0CF1100C58
:1010B0009C4576447FF459AF169B119AA3F1100119
:1010C0000A44159B11460F9A09FB03F00EFB032EF1
:1010D000139B03EB8005294B03EB8000149B002B33
:1010E0006CD07446CDF810E0DDF85CA0DDF820E0AF
:1010F000069E01EB830CAB4653460246F2EC017AA6
:10110000013BEBEC017AF9D1019BDFED207A4844F9
:101110004D44002B00F0BA80029B04F1100253ED05
:10112000043A12ED044A53ED034A12ED035A53ED0B
:10113000025A12ED026A53ED016A12ED017AE3EEF2
:10114000847A1033BB4202F11002E4EE857AE5EEB8
:10115000867AE6EE877AE2D1039A04EB0E0B19E069
:10116000180D0020C0240008000000C700FEFF4644
:101170008835002098230020682300206824002060
:1011800050230020400F0020E8370020000000001E
:101190007C34002046B13346F2EC016ABBEC017AA4
:1011A000013BE6EE877AF7D1E1EC017A61454C44E8
:1011B000A1D1DDF810E0149B09FB03EE129B5C1E2D
:1011C000A50820D00F9B0EF110021033294652F8CB
:1011D000100C43F8100C52F80C0C43F80C0C52F89D
:1011E000080C43F8080C52F8040C43F8040C0139BD
:1011F00002F1100203F11003E9D10F9B03EB051379
:101200000EEB051E0F9314F0030308D00F9A0EEB9C
:1012100083035EF8041B42F8041B9E45F9D179480C
:10122000FFF746FA784A7948136814460133136089
:10123000FFF73EFA2368B3F5C86F37D0D8F8083106
:10124000734A934240F0B380724B714A1B689342D9
:1012500040F0C080704B6E4A1B6893423FF4EDAD86
:101260006E4C4FF48045258341F28830FFF7A8FD8E
:10127000658341F28830FFF7A3FD258372B6684A83
:10128000684BD362FEE7109C3546F0E6109AA34601
:1012900080E7634B11469B6952685962C3E90012AB
:1012A000052013604B60FFF75BFCD0E5202383F340
:1012B00011885D4D6B69B3B11A68116821F01F0187
:1012C00011601168CE07FCD4587A5968AA683D238A
:1012D00083400B60936803F08203022BFAD1D36939
:1012E00023F48063D3612B69DBB11A68116821F0A4
:1012F0001F0111601168CC07FCD4587A5968AB689B
:101300003D2282400A609A68D007FCD5DA6922F44F
:101310008062DA619A68D10703D5DA689A68D207E1
:10132000FBD402232B70002383F311883B4C3F4FE7
:101330003F4E4FF400536383636983F4004363615A
:101340003846FFF7DDF942F21070FFF739FD3846F5
:10135000FFF7AEF93369DB07EED56420FFF730FD08
:10136000334A146914F00104FBD12C4E4FF4FA6097
:10137000FFF726FD4FF4004373834FF4C832214634
:101380002C4801F03FF8204B1C60202383F3118888
:10139000FFF79EF803232B7084F311884FF400535A
:1013A0003383D8F808311A4A93423FF44DAF1B4CAF
:1013B0004FF48045258341F28830FFF701FD6583B6
:1013C00041F28830FFF7FCFC258372B6144A154BB6
:1013D000D362FEE7114C4FF48045258341F28830FB
:1013E000FFF7EEFC658341F28830FFF7E9FC2583C7
:1013F00072B60B4A0B4BD362FEE719B0BDEC0A8BF9
:10140000BDE8F08F50230020E8370020982300200B
:10141000EFBEADDE48230020ECC70120000C0240E7
:10142000180D0020D8240008000C0020B023002054
:1014300000000240EC370020000000000000000027
:101440002DE9F04F2DED028B83B008EE103AC769FD
:1014500001924FF0200989F31188A2B3DDF804B09E
:1014600004460E464FF0000AA2689345D4E90420D2
:101470008CBFA5685D46A2EB0008A84542D82BD2D8
:10148000A5EB0803424631460093FEF757FF06EBF3
:101490000801DDF80080E0684246FEF74FFFA268D1
:1014A000E1684346CB18521B6361A2600FB120462E
:1014B000B8478AF31188ABEB050B2E4489F31188EA
:1014C000BBF1000FD0D10198002383F3118803B042
:1014D000BDEC028BBDE8F08F2A463146FEF72EFFA9
:1014E000E2686261A268521BA260002DDED118EE94
:1014F000101A2046FFF7D4FB0028B5D0019BA3EBC0
:101500000B00E1E72A463146FEF718FF62692A44DC
:101510006261E7E70000000000000000000000003A
:101520003030FFF78DBF00BF00000000000000005A
:1015300030304FF0FF33FFF783BF00BF00000000E3
:101540002DE9F04F2DED028B83B008EE103AC769FC
:1015500001924FF0200989F31188002A34D0DDF878
:1015600004B004460E464FF0000AA268A1699345F4
:1015700022698CBFA5685D46A2EB0108A84542D848
:101580002BD2A5EB0803424630460093FEF7D6FE69
:1015900006EB0800DDF80080E1684246FEF7CEFE6B
:1015A000A268E1684346CB18521BA361A2600FB149
:1015B0002046B8478AF31188ABEB050B2E4489F31C
:1015C0001188BBF1000FD0D10198002383F311885B
:1015D00003B0BDEC028BBDE8F08F2A463046FEF723
:1015E000ADFEE268A261A268521BA260002DDED1AE
:1015F00018EE101A2046FFF753FB0028B5D0019BC8
:10160000A3EB0B00E1E72A463046FEF797FEA269FE
:101610002A44A261E7E700BF0000000000000000CC
:101620000C30FFF78DBF00BF00000000000000007D
:101630000C304FF0FF33FFF783BF00BF0000000006
:10164000264B27481A696FEAC2526FEAD2522DE937
:1016500080481A611A69C2F308021A614FF0FF3418
:101660001A695A695C61002259695A615969196A93
:1016700061F080511962196A01F080511962196A8A
:10168000596A5C62596A5A62596A196C41F0805110
:101690001964196E41F080511966196E016841F4A0
:1016A00080710160196F01F44071B1F5007F87B05E
:1016B00003D04FF4803119671A67094C09496268F1
:1016C000094B0A4D22F400720020626088460860CF
:1016D0000A46074603F1C0010CE000BF0038024093
:1016E00000700040E4230020F42400081060024051
:1016F00053F80C5C2F600C338B42576002F10802E8
:10170000F6D1C74CC74DC84EC84A6F6060234FF032
:10171000FF394021C6F808904FF0800B2F61C6F8C2
:101720000C90C2F808906F61C2F80C9084F80633F0
:101730004FF48072C4F8801121604FF4007184F876
:101740000733C4F880B1C4F800B084F80833C4F893
:101750008021226084F80933C4F8801121604FF49D
:10176000806184F80A33C4F8801121604FF40001CD
:1017700084F81733A6F50A36C4F8801121604FF4B7
:10178000407184F82833AA48C4F88421A94BAE607C
:1017900062600122A981A8492A70AB61EF61FEF75E
:1017A00067FEDFF800A3A54B4367A549A54E504649
:1017B000FEF75EFEA44BA548196CDFF8ECC2DFF81B
:1017C000ECE241F001011964196E41F00101196662
:1017D0001B6E8368766043F0010383604FF08043A3
:1017E000012242F2CF009862C3F82C90B7609F614B
:1017F00036615F637661DF60C6F824905F60B76230
:101800005A61CCF804701A6003F5884384F81CB35D
:101810004FF08052CAF874308D498E48C4F8802148
:1018200006F11C03F361226033628B4B8B4ACCF8C8
:101830000020C1E900E0002000213660CCF80870EB
:10184000CDE90401CCF81470CDE9017777670397EF
:1018500003F13C009F605F61DF6203F140070CF120
:101860000C0203F110011424C3E90033C3E90F078C
:10187000CCE9032203F1240A794A196103F1280E05
:101880004FF01C0C03F144019C610424CDF800903E
:10189000C3F824A0C3F828E0C3F830C05964DC6161
:1018A0005C631A629A636846FEF72AFF6846FEF791
:1018B000FFFE013CF7D16B4B7769DFF8F4E100994B
:1018C00086F851404FF0800B012203F12C0003F108
:1018D000280CC6E91944C6E910677167C6F838B024
:1018E000C6F86CB086F85220C6F848E04FF0200ADF
:1018F0003B61C6E90533C6E916C086F85020F4649A
:1019000030668AF3118862B6574B5849D868584FE9
:101910004FF6FF0C00EA0C000143D960F968554806
:1019200041F08071F9600168102711430160DF7791
:1019300083F822A084F3118862B68AF311884E4B93
:101940007169C3F82021C3E9544283F83A214B4816
:10195000C3F8F40003F1B402C3F8242103F58C703A
:10196000DFF850C1464FC3F82C110222A3F83821EA
:10197000C3F8F84003F5A272C3F84C41C3F82861DC
:10198000C3F83431C3F814C1C3F83071086103F5EA
:10199000A071C3E95012C3F848217061FFF778F8CD
:1019A00084F31188374B384F384A39489C60C3E973
:1019B00000334FF41471FFF79BF82146384641F28B
:1019C0000C4200F01FFD41F208413248785007F107
:1019D0000C03314A7A604FF480702146788041F2DE
:1019E000FC32184600F00EFD0346BB602B482C4E1F
:1019F000DFF8C490C46040233B704FF0FF330022F7
:101A0000036083610363836403660023C0E90423E6
:101A1000C0E90A23C0E91023C0E916234EE000BF45
:101A200000E100E0000C0020006002400064024081
:101A3000200C00201E2D01000106000800100140AE
:101A400011060008180D002000380240002004E0B4
:101A5000380F002000000220900D0020C105000872
:101A600081060008480D002000ED00E00003FA05A3
:101A7000F0ED00E0001000E0D80D00206108000843
:101A8000E024000888350020400F0020210E0008C7
:101A900098350020EFBEADDE000800205023002066
:101AA000683400209C0C0020C8230020C0C90120FD
:101AB000A8250008210300087C340020C0E91C236D
:101AC000C0E90144C0E90744C0E90D44C0E913443A
:101AD000C0E9194421464462C4634465C466C6E94A
:101AE0000044C6E90244346148464FF4867200F06F
:101AF00089FC434B434A4448C9F8082108215A60ED
:101B0000FEF716FD41484FF48061FEF711FD404994
:101B1000404A346009F10803C6E9013BC6E90312F3
:101B20008AF311882B786E60012B25D0A989B6F92C
:101B30001030AA68B6F9120010620B4343F4006338
:101B40000221D3612970002484F31188202383F3B8
:101B50001188FEF7BDFC03232B7084F311882E4AF5
:101B60002E482F4C4FF4E871FEF7C2FF41F2883047
:101B70002369FFF725F9F9E72A4B1A6C42F48042F2
:101B80001A641A6E42F480421A66D8F80020196E60
:101B9000110706D5AB682C610021012219605A603B
:101BA000C4E742F00802C8F800201A6BC8F82050B9
:101BB00042F400121A63196D1B4A41F400111965B1
:101BC0001B6D13681949C8F81C1023F01F0313601C
:101BD00013461A6812F00102FBD1154815494FF05F
:101BE000746404601A6021244FF48042A0205C6178
:101BF00081F80E03104CC1F880210A60CAE700BFCB
:101C0000E8C70120EFBEADDE00080240000402403C
:101C1000B107000818032A00E10D0008F0C70120F1
:101C2000000002400038024058600240310A0008BB
:101C30000860024000E100E00C2500080000000000
:101C4000024B4FF480421A83FEE700BF000C0240B3
:101C5000EFF3098305494A6822F0010268334A60BC
:101C600083F30988002383F31188704730EF00E085
:101C700038B52022034682F311880F4A9469A06A7E
:101C8000636204F12805A84206D00368A362FEF748
:101C900077FDA06AA842F8D194F822303BB994F8B5
:101CA00021309B0703D1D4E9043213615A61BDE8A6
:101CB00038400F20FEF754BF180D00200000000030
:101CC0000D4A10689169036830B401245A600025F8
:101CD00080F820408C681360906181F8205000E00B
:101CE0001B689A689442FBD35A6830BCC1E9003241
:101CF00011605960FEF708BB180D002000000000BD
:101D00007E4A7F481369DFF84CC240F2FF110B4353
:101D10002DE9F041136113697A4EDFF83CE27A4F06
:101D20007A4D7B4C23F4FF7323F001031361136995
:101D3000136B0B431363136D0B4313656FF4A841CF
:101D40000023D2F85080436081604FF6FF71C0F8E5
:101D50000CE0DFF808824161DFF804E207624FF42B
:101D60001077C0F82480C0F800E077604FF0FF30B3
:101D7000DFF8F0E1B0604FF08067C6F80CE0716109
:101D80004FF0400E3762634FC6F824E0376006F12B
:101D9000A25606F5443606F5AA766B60A860EE609A
:101DA0004FF0C04669612E625B4E6E625B4E2E60E4
:101DB0005B4D6360A060E56040F6FF756561594F5B
:101DC000594E5A4D236263622560CCF80430584D59
:101DD000CCF8080004F5A054CCF80C30CCF8141062
:101DE000CCF82030CCF82430CCF800E0ACF5D03C76
:101DF0007B60B860FB6079613B627B623B607360D3
:101E00004FF08057B060F36071613362736233608A
:101E10004FF440466B60A860EB6069612B626B62B7
:101E20002B606360A060E360616123626362236092
:101E30001764CCF80060136843F001031360136863
:101E40009E07FCD591682D4B21F0030191609A68A3
:101E500012F00C02FBD11868284900F0F900186054
:101E60009A601A6842F480321A600B689D03FCD5B0
:101E70004A6F224B42F001024A675A6F9407FCD521
:101E80002C4A5A601A682C4942F080721A604B68DA
:101E90005804FCD5194B1A689201FCD52749284AE9
:101EA00099601268274B9A421ED0274B40F2057268
:101EB0001A60254A136803F00F03052BFAD10F4B64
:101EC0009A6842F002029A609A6802F00C02082AAC
:101ED000FAD15A6C42F480425A645A6E42F48042FB
:101EE0005A665B6EBDE8F081184A194B12689A4237
:101EF000DBD1154B40F205121A60DAE700380240D8
:101F00000000024000040240000056550008024054
:101F1000000C02408020080000060600018020021C
:101F200055505500001402400018024000010055B1
:101F3000001C02400854400700700040009488389C
:101F4000002004E011640020003C024000ED00E0AD
:101F500041C20F41001002405400014000AA0A0093
:101F600000AAA02A154551550000000000000000FD
:101F700008B50348FEF77CFCBDE80840FEF750BBFF
:101F80009C0C002000000000000000000000000089
:101F900008B50348FEF76CFCBDE80840FEF740BBFF
:101FA000200C0020000000000000000000000000E5
:101FB0004FF080402DE9F8430369C2681340DAB25C
:101FC000D2439B07026103D4BDE8F843FEF728BB68
:101FD000202383F31188234D476AEB69AA6A996825
:101FE000BE1AB14288BF05F11C0925D8044605F187
:101FF0001C094FF00008202700E0AA6A18680A446C
:102000004845AA62A6EB0106DA68C0F80490E861C8
:10201000C3F80C8008BFC4F80C8088F311881869D5
:10202000904787F31188EB6999688E42E5D2676A19
:10203000AA6ABE1A8E42DED24B450BD09968AF62B7
:10204000C91B0A444FF08041022A2CBFBF18023737
:102050009A604F63002383F31188BDE8F843FEF7CD
:10206000DFBA00BF180D00200000000000000000D3
:10207000084B09485968C26F890D01F03D0110B540
:102080008C05DC6012B1D0F880009047BDE81040AC
:10209000FEF7C6BA00640240E423002000000000FE
:1020A000084B09485968426F090C01F03D0110B511
:1020B0000C04DC600AB1806F9047BDE81040FEF769
:1020C000AFBA00BF00640240E4230020000000001B
:1020D000084B09485968C26E890901F03D0110B5E5
:1020E0008C01DC600AB1006F9047BDE81040FEF73C
:1020F00097BA00BF00640240E42300200000000003
:1021000008B5074B07485968426E01F03D01D96098
:102110000AB1806E9047BDE80840FEF781BA00BF63
:1021200000640240E42300200000000000000000E2
:10213000084B09481968C26D890D01F03D0110B5C1
:102140008C059C600AB1006E9047BDE81040FEF718
:1021500067BA00BF00640240E423002000000000D2
:10216000084B09481968426D090C01F03D0110B592
:102170000C049C600AB1806D9047BDE81040FEF7EA
:102180004FBA00BF00640240E423002000000000BA
:10219000084B09481968C26C890901F03D0110B566
:1021A0008C019C600AB1006D9047BDE81040FEF7BD
:1021B00037BA00BF00640240E423002000000000A2
:1021C00008B5074B07481968426C01F03D0199605A
:1021D0000AB1806C9047BDE80840FEF721BA00BF05
:1021E00000640240E4230020000000000000000022
:1021F000084B09485968C26B890D01F03D0110B5C3
:102200008C05DC600AB1006C9047BDE81040FEF719
:1022100007BA00BF00600240E42300200000000075
:10222000084B09485968426B090C01F03D0110B593
:102230000C04DC600AB1806B9047BDE81040FEF7EB
:10224000EFB900BF00600240E4230020000000005E
:10225000084B09485968C26A890901F03D0110B567
:102260008C01DC600AB1006B9047BDE81040FEF7BE
:10227000D7B900BF00600240E42300200000000046
:1022800008B5074B07485968426A01F03D01D9601B
:102290000AB1806A9047BDE80840FEF7C1B900BFA7
:1022A00000600240E4230020000000000000000065
:1022B000084B09481968C269890D01F03D0110B544
:1022C0008C059C600AB1006A9047BDE81040FEF79B
:1022D000A7B900BF00600240E42300200000000016
:1022E000084B094819684269090C01F03D0110B515
:1022F0000C049C600AB180699047BDE81040FEF76D
:102300008FB900BF00600240E423002000000000FD
:10231000084B09481968C268890901F03D0110B5E8
:102320008C019C600AB100699047BDE81040FEF73F
:1023300077B900BF00600240E423002000000000E5
:1023400008B5074B07481968426801F03D019960DC
:102350000AB180689047BDE80840FEF761B900BF48
:1023600000600240E42300200000000000000000A4
:10237000F0B4144F144D1548154B164907F1700C65
:102380000026984211D904391A4651F8044F42F8F0
:10239000044B9042F9D8421ED21A22F003020432B2
:1023A00013449D4203D943F8046B9D42FBD8674513
:1023B00005D0D7E90413D7E906051037E1E7F0BCEB
:1023C000704700BFC0250008C0C90120C0C9012056
:1023D000C0C90120682A00080000000000000000B9
:1023E000FEE700BF00000000000000000000000049
:1023F000704700BF00000000000000000000000067
:10240000704700BFF0B4860746D0541E002A3CD067
:10241000CAB2034601E0013C37D303F8012B9D0704
:10242000F9D1032C2AD9CDB245EA05250F2C45EA6E
:10243000054534D9A4F1100222F00F0C03F1200756
:102440001609674403F1100242E9045542E90255B6
:102450001032BA42F8D1721C14F00C0F03EB0212C6
:1024600004F00F0613D0331F23F003030433134487
:1024700042F8045B9342FBD106F003042CB1CAB2CC
:102480001C4403F8012B9C42FBD1F0BC704734463E
:102490001346002CF3D1F8E714460346C1E71A4669
:0424A0002646E0E705
:1024A400444D41206661696C757265006E6F6E61A2
:1024B4006D650000626C696E6B6572006D70343519
:1024C4006474303250726F63657373696E675468F5
:1024D400640000004552524F5200000069646C656C
:1024E4000000000010600240086002400000000B81
:1024F40028600240086002400006010C406002406F
:10250400086002400010020D58600240086002405A
:102514000016030E706002400C6002400000040FBD
:10252400886002400C60024000060510A060024072
:102534000C60024000100611B86002400C600240BA
:102544000016072F10640240086402400000083897
:1025540028640240086402400006093940640240CD
:102564000864024000100A3A5864024008640240B9
:1025740000160B3B706402400C64024000000C3CEB
:10258400886402400C64024000060D44A0640240CA
:102594000C64024000100E45B86402400C64024012
:1025A40000160F466D61696E00164130040444083C
:1025B4000C1014181C20212200000000682A0008B6
:1025C400C0C90120C0C90120C0C90120682A00086F
:1025D400000000200000002000000020682A0008FD
:1025E40000C0012000C0012000C00120682A0008AA
:1025F400000000000000000000000000682A00083D
:10260400000000100000001000000010682A0008FC
:10261400004002400040024000400240682A000896
:10262400000000000000000000000000682A00080C
:102634000000000000000000000000000000000096
:102644003115000831160008310D0008B10D0008DD
:10265400210D0008A10D000821150008211600080D
:04266400810A0008DF
:10266800308D55B9BA5257B9D49459B9C2535CB9D7
:102678002E8E5FB9214163B9F96767B960FC6BB900
:1026880045F670B9DA4B76B98DF17BB904ED80B9AE
:1026980019FB83B9961A87B92C428AB9B2678DB9E2
:1026A800218090B99E7F93B9805996B94F0099B906
:1026B800D4659BB9197B9DB976309FB99875A0B937
:1026C8008D39A1B9CE6AA1B947F7A0B96BCC9FB92A
:1026D8003AD79DB952049BB9FB3F97B9397692B95D
:1026E800D8928CB97D8185B96C5B7AB9170667B9C0
:1026F80021DA50B9E7AE37B9225C1BB90D74F7B8C7
:10270800DB42B1B8CAAF47B88683EEB60FAA1B380A
:1027180056A6B238C4E70F39C2C84A39810A853982
:10272800D3F4A639F930CB3999CBF13926680D3A6B
:10273800C724233A58203A3AE65E523ADAE36B3A2B
:10274800FB58833AA565913A9918A03A2B72AF3A8B
:102758004E72BF3A9318D03A2A64E13ADE53F33AFC
:102768000BF3023B678C0C3BD174163BE0AA203B71
:10277800F72C2B3B48F9353BCE0D413B51684C3B80
:102788006906583B78E5633BB002703B135B7C3BC2
:10279800B975843B37D88A3B4053913BF8E4973B63
:1027A8006F8B9E3BA244A53B770EAC3BC7E6B23B82
:1027B80054CBB93BD5B9C03BEEAFC73B37ABCE3BEB
:1027C8003BA9D53B7AA7DC3B6AA3E33B789AEA3B73
:1027D800088AF13B7C6FF83B2F48FF3BBD08033C60
:1027E8005964063C98B5093C27FB0C3CB333103CB4
:1027F800EC5D133C8778163C3A82193CC2791C3C44
:10280800DF5D1F3C582D223CFDE6243CA289273C75
:1028180026142A3C70852C3C6FDC2E3C1F18313C5A
:102828008537333CB239353CC31D373CE1E2383C8F
:1028380044883A3C2F0D3C3CF4703D3CF5B23E3C9C
:10284800A0D23F3C75CF403C01A9413CE25E423CEE
:10285800C5F0423C6A5E433C9EA7433C41CC433CA6
:1028680041CC433C9EA7433C6A5E433CC5F0423C96
:10287800E25E423C01A9413C75CF403CA0D23F3CBE
:10288800F5B23E3CF4703D3C2F0D3C3C44883A3C4C
:10289800E1E2383CC31D373CB239353C8537333C1F
:1028A8001F18313C6FDC2E3C70852C3C26142A3CCA
:1028B800A289273CFDE6243C582D223CDF5D1F3CC5
:1028C800C2791C3C3A82193C8778163CEC5D133C73
:1028D800B333103C27FB0C3C98B5093C5964063CC3
:1028E800BD08033C2F48FF3B7C6FF83B088AF13B4F
:1028F800789AEA3B6AA3E33B7AA7DC3B3BA9D53B42
:1029080037ABCE3BEEAFC73BD5B9C03B54CBB93B99
:10291800C7E6B23B770EAC3BA244A53B6F8B9E3B10
:10292800F8E4973B4053913B37D88A3BB975843BD1
:10293800135B7C3BB002703B78E5633B6906583B10
:1029480051684C3BCE0D413B48F9353BF72C2B3BAE
:10295800E0AA203BD174163B678C0C3B0BF3023B7F
:10296800DE53F33A2A64E13A9318D03A4E72BF3AEA
:102978002B72AF3A9918A03AA565913AFB58833A59
:10298800DAE36B3AE65E523A58203A3AC724233AD9
:1029980026680D3A99CBF139F930CB39D3F4A639F9
:1029A800810A8539C2C84A39C4E70F3956A6B238F0
:1029B8000FAA1B388683EEB6CAAF47B8DB42B1B858
:1029C8000D74F7B8225C1BB9E7AE37B921DA50B9F4
:1029D800170667B96C5B7AB97D8185B9D8928CB9CD
:1029E800397692B9FB3F97B952049BB93AD79DB94A
:1029F8006BCC9FB947F7A0B9CE6AA1B98D39A1B9F7
:102A08009875A0B976309FB9197B9DB9D4659BB9E3
:102A18004F0099B9805996B99E7F93B9218090B992
:102A2800B2678DB92C428AB9961A87B919FB83B94E
:102A380004ED80B98DF17BB9DA4B76B945F670B9FA
:102A480060FC6BB9F96767B9214163B92E8E5FB92C
:102A5800C2535CB9D49459B9BA5257B9308D55B9E3
:0400000508000301EB
:00000001FF
